:100000000C942A000C9447000C9447000C94470071
:100010000C9447000C9447000C9447000C94470044
:100020000C9447000C9447000C9447000C94470034
:100030000C9447000C9447000C9447000C94470024
:100040000C9447000C9447000C9447000C94470014
:100050000C94470011241FBECFE5D8E0DEBFCDBF12
:1000600010E0A0E6B0E0ECECFBE002C005900D92E1
:10007000A63EB107D9F710E0A6EEB0E001C01D9290
:10008000A63EB107E1F70E94D9040C94E4050C9454
:100090000000843409F471C0853448F4823499F145
:1000A000833408F04DC0813409F083C00FC082361C
:1000B00051F1833620F4813609F07BC007C08336C6
:1000C00009F43EC0843609F074C057C0413069F469
:1000D0002AB381E090E0AC0102C0440F551F6A953D
:1000E000E2F7BA01622B6ABB08952AB381E090E07F
:1000F000AC0102C0440F551F6A95E2F7BA01609542
:1001000062236ABB0895413069F427B381E090E02F
:10011000AC0102C0440F551F6A95E2F7BA01622B89
:1001200067BB089527B381E090E0AC0102C0440FA3
:10013000551F6A95E2F7BA016095622367BB08957F
:10014000413069F424B381E090E0AC0102C0440F77
:10015000551F6A95E2F7BA01622B64BB089524B378
:1001600081E090E0AC0102C0440F551F6A95E2F7B0
:10017000BA016095622364BB0895413069F421B3EC
:1001800081E090E0AC0102C0440F551F6A95E2F790
:10019000BA01622B61BB089521B381E090E0AC010C
:1001A00002C0440F551F6A95E2F7BA0160956223B9
:1001B00061BB0895843409F471C0853448F48234F5
:1001C00099F1833408F04DC0813409F083C00FC029
:1001D000823651F1833620F4813609F07BC007C0A6
:1001E000833609F43EC0843609F074C057C04130EC
:1001F00069F42BB381E090E0AC0102C0440F551FBD
:100200006A95E2F7BA01622B6BBB08952BB381E0CC
:1002100090E0AC0102C0440F551F6A95E2F7BA01A5
:10022000609562236BBB0895413069F428B381E087
:1002300090E0AC0102C0440F551F6A95E2F7BA0185
:10024000622B68BB089528B381E090E0AC0102C046
:10025000440F551F6A95E2F7BA016095622368BBA7
:100260000895413069F425B381E090E0AC0102C00B
:10027000440F551F6A95E2F7BA01622B65BB0895DA
:1002800025B381E090E0AC0102C0440F551F6A9590
:10029000E2F7BA016095622365BB0895413069F4C5
:1002A00022B381E090E0AC0102C0440F551F6A9573
:1002B000E2F7BA01622B62BB089522B381E090E0BD
:1002C000AC0102C0440F551F6A95E2F7BA01609570
:1002D000622362BB0895843409F43DC0853440F440
:1002E0008234F9F0833450F5813409F040C00CC0F9
:1002F0008236B9F0833618F48136C9F505C08336E5
:10030000E9F08436A1F527C02BB381E090E0AC0181
:1003100002C0440F551F6A95E2F7BA0162276BBB12
:10032000089528B381E090E0AC0102C0440F551F4E
:100330006A95E2F7BA01622768BB089525B381E0A8
:1003400090E0AC0102C0440F551F6A95E2F7BA0174
:10035000622765BB089522B381E090E0AC0102C042
:10036000440F551F6A95E2F7BA01622762BB0895F0
:10037000843409F44EC0853440F4823431F183343E
:10038000B0F5813409F057C00EC08236F1F08336E3
:1003900020F4813609F04FC006C0833641F184361F
:1003A00009F049C036C029B381E090E0062E02C0B2
:1003B000880F991F0A94E2F730E08223932302C04A
:1003C000959587956A95E2F7089526B381E090E0C8
:1003D000062E02C0880F991F0A94E2F730E08223AC
:1003E000932302C0959587956A95E2F7089523B304
:1003F00081E090E0062E02C0880F991F0A94E2F770
:1004000030E08223932302C0959587956A95E2F7A1
:10041000089520B381E090E0062E02C0880F991F56
:100420000A94E2F730E08223932302C095958795E2
:100430006A95E2F7089580E008958434D9F0853410
:1004400038F4823499F0833498F48134A1F40CC0E8
:10045000823661F0833618F4813669F405C083363C
:1004600039F0843641F406C06ABB089567BB08952D
:1004700064BB089561BB08958434D9F0853438F4A1
:10048000823499F0833498F48134A1F40CC082361C
:1004900061F0833618F4813669F405C0833639F08B
:1004A000843641F406C06BBB089568BB089565BBF4
:1004B000089562BB08958434D9F0853438F48234C9
:1004C00099F0833498F48134A9F40CC0823661F039
:1004D000833618F4813671F405C0833639F08436DA
:1004E00049F406C089B3089586B3089583B3089587
:1004F00080B3089580E00895843409F1853438F498
:100500008234A9F08334B8F48134E1F40CC082362B
:1005100071F0833618F48136A9F405C0833659F09A
:10052000843681F40CC08BB380958BBB089588B35F
:10053000809588BB089585B3809585BB089582B367
:10054000809582BB0895843409F471C0853448F4E1
:10055000823499F1833408F04DC0813409F083C0AE
:100560000FC0823651F1833620F4813609F07BC00A
:1005700007C0833609F43EC0843609F074C057C002
:10058000413069F42BB381E090E0AC0102C0440F2C
:10059000551F6A95E2F7BA01622B6BBB08952BB326
:1005A00081E090E0AC0102C0440F551F6A95E2F76C
:1005B000BA01609562236BBB0895413069F428B39A
:1005C00081E090E0AC0102C0440F551F6A95E2F74C
:1005D000BA01622B68BB089528B381E090E0AC01BA
:1005E00002C0440F551F6A95E2F7BA016095622375
:1005F00068BB0895413069F425B381E090E0AC0117
:1006000002C0440F551F6A95E2F7BA01622B65BB21
:10061000089525B381E090E0AC0102C0440F551F5E
:100620006A95E2F7BA016095622365BB089541308F
:1006300069F422B381E090E0AC0102C0440F551F81
:100640006A95E2F7BA01622B62BB089522B381E09A
:1006500090E0AC0102C0440F551F6A95E2F7BA0161
:100660006095622362BB08956F70843451F18534C4
:1006700038F48234C1F08334E8F4813441F50CC09D
:10068000823689F0833618F4813609F505C0833641
:1006900089F08436E1F415C08BB3807F8BBB8BB3BC
:1006A000682B6BBB089588B3807F88BB88B3682BA9
:1006B00068BB089585B3807F85BB85B3682B65BB18
:1006C000089582B3807F82BB82B3682B62BB08959A
:1006D0006295607F843451F1853438F48234C1F0FE
:1006E0008334E8F4813441F50CC0823689F08336D6
:1006F00018F4813609F505C0833689F08436E1F4B3
:1007000015C08BB38F708BBB8BB3682B6BBB0895FD
:1007100088B38F7088BB88B3682B68BB089585B396
:100720008F7085BB85B3682B65BB089582B38F70CE
:1007300082BB82B3682B62BB08959FBB8EBB6DBB2F
:10074000E29AE19AE199FECF08959FBB8EBBE09AB1
:100750008DB30895CF93C82F6FE00E941D028C2F98
:1007600064E041E00E94A3028C2F65E041E00E941A
:10077000A3028C2F66E041E00E94A3028C2F67E069
:1007800041E00E94A302CF910895CF92DF92FF92A1
:100790000F931F93CF93DF93CDB7DEB760970FB65C
:1007A000F894DEBF0FBECDBFF82EDE011196E0E655
:1007B000F0E080E101900D928150E1F7CC24DD243E
:1007C0008F2D6FE00E9434038F2D6C2D40E00E942E
:1007D000DA0010E0012F0C5F8F2D602F0E94B8010E
:1007E0008823B9F48F2D602F0E94B8018823D1F39C
:1007F000F601EE0FFF1FEE0FFF1FE10FF11D81E06D
:1008000090E08C0F9D1FE80FF91F80818F3F21F032
:100810000BC01F5F1430F1F60894C11CD11C94E08A
:10082000C916D10469F68FEF60960FB6F894DEBF53
:100830000FBECDBFDF91CF911F910F91FF90DF9041
:10084000CF90089582E460E041E00E94DA008FE9F1
:100850009FE00197F1F700C0000082E460E040E013
:100860000E94DA008FE99FE00197F1F700C00000D5
:100870000895CF93C82F82E461E040E00E94DA003F
:1008800081E46C2F0E943C020E9422048FEC97E0CE
:100890000197F1F700C00000CF9108958FEF91EE1E
:1008A000A4E081509040A040E1F700C0000081E446
:1008B0006FEF0E941D0282E460E041E00E94490067
:1008C00082E461E041E00E94490082E462E041E0AC
:1008D0000E94490082E462E040E00E94DA0088E37E
:1008E0000E943904AFECB7E01197F1F700C00000A7
:1008F0008CE00E9439048FEC97E00197F1F700C07B
:10090000000081E00E943904AFE1BEE41197F1F7E5
:1009100000C0000086E00E9439048FEC97E0019748
:10092000F1F700C000000895CF93C82F82E461E082
:1009300041E00E94DA0081E46C2F0E943C020E9498
:100940002204CF910895CF93DF93EC01888188230F
:1009500031F021960E94940489918823D9F7DF9180
:10096000CF91089581E00E9439048FE19EE40197C0
:10097000F1F700C000000895982F9150923068F46C
:10098000653158F4662349F0813019F4862F815877
:1009900002C0862F81540E9439040895803420F0CB
:1009A00080E80E943904089580648F770E9439049A
:1009B00008954F925F926F927F928F929F92AF9223
:1009C000BF92DF92EF92FF920F931F93CF93DF932B
:1009D00000D000D0CDB7DEB70E944E0484E40E9460
:1009E000AA038FEF89838A838B838C8380E290E0D4
:1009F0000E94A5038F3F81F580E790E00E94A30449
:100A00000F2EF1E2EF2EFF24F02D84E40E94C503A7
:100A1000082F8F3FD1F30E94940480E10E94390493
:100A20008FEF90E7A2E081509040A040E1F700C036
:100A300000008AE20E949404C701602F0E949D0377
:100A40000894E11CF11C95E2E916F104F1F680E24C
:100A500090E060E00E949D030F2EF2E3DF2EF02D68
:100A60000F2EFDE7AF2EF0E0BF2EF02D0F2EF5E09C
:100A7000EF2EFF24F02DEC0EFD1E0F2EFAEC8F2E24
:100A8000F0E09F2EF02D0F2EF4ED6F2EF0E07F2E74
:100A9000F02D0F2EFAED4F2EF0E05F2EF02D0E947C
:100AA000B204C5010E94A3048E010F5F1F4F84E4AE
:100AB0000E94C503D8018C938F3FC9F30E94940410
:100AC00080E10E9439048FEF90E7A2E081509040CE
:100AD000A040E1F700C000008AE20E9494040F5F8A
:100AE0001F4F0E151F0519F781E290E00E94A50324
:100AF0009981891721F582E290E00E94A5039A81ED
:100B00008917E9F483E290E00E94A5039B8189178D
:100B1000B1F484E290E00E94A5039C81891779F4E6
:100B20000E94B2048CE890E00E94A30482E061E09D
:100B30000E94BC048DE990E00E94A3042FC090E3C2
:100B4000D91679F40E94B2048CEA90E00E94A304C2
:100B500082E061E00E94BC048BEB90E00E94A30461
:100B60001DC00E94B204C4010E94A3048D2D0E94E6
:100B70009404C3010E94A30482E061E00E94BC04CB
:100B8000C2010E94A3048FEF93EDA0E38150904037
:100B9000A040E1F700C00000DA9481CF80E090E04F
:100BA0000F900F900F900F90DF91CF911F910F91A9
:100BB000FF90EF90DF90BF90AF909F908F907F90CD
:0C0BC0006F905F904F900895F894FFCF65
:100BCC003738392F3435362A3132332B41303D2DDD
:100BDC0053657450617373776F72643A00456E7429
:100BEC00657250617373776F72643A00436F7272FF
:100BFC006563742050617373776F72640053616620
:100C0C0065206973206F70656E6564005472696548
:100C1C007320617265206F76657200536166652082
:100C2C00697320636C6F73656400596F752068611C
:100C3C0076652000206C65667400547279204167DB
:060C4C0061696E21000049
:00000001FF
